{
  "transactions": [
    {
      "hash": "0x5d20d51c978323c2f13f738d3c1e354c1a27cff0a529f74cea8594f5b462b354",
      "transactionType": "CALL",
      "contractName": null,
      "contractAddress": "0xABd786926E9053F27C9A61124f345fC426c59189",
      "function": "execute(address,bytes)",
      "arguments": [
        "0xB653734e1B2cfEFa56871728263397f5b1F1f674",
        "0x857d1ab70000000000000000000000000ff91587a9628beb7ad9b119f5042babc38304d800000000000000000000000004a438df2579a77fe7d17ec49ba04dea740d0e13"
      ],
      "transaction": {
        "from": "0xfb5a5bDa14888c16134681a86f2B91277ADC3c91",
        "to": "0xABd786926E9053F27C9A61124f345fC426c59189",
        "gas": "0x433da",
        "value": "0x0",
        "input": "0x1cff79cd000000000000000000000000b653734e1b2cfefa56871728263397f5b1f1f67400000000000000000000000000000000000000000000000000000000000000400000000000000000000000000000000000000000000000000000000000000044857d1ab70000000000000000000000000ff91587a9628beb7ad9b119f5042babc38304d800000000000000000000000004a438df2579a77fe7d17ec49ba04dea740d0e1300000000000000000000000000000000000000000000000000000000",
        "nonce": "0xd",
        "chainId": "0x66eee"
      },
      "additionalContracts": [],
      "isFixedGasLimit": false
    }
  ],
  "receipts": [
    {
      "status": "0x1",
      "cumulativeGasUsed": "0x2fcf0",
      "logs": [
        {
          "address": "0x220FF659A993DA42e29CcF88a7e5788fef6053c8",
          "topics": [
            "0xbc7cd75a20ee27fd9adebab32041f755214dbc6bffa90cc0225b39da2e5c2d3b",
            "0x000000000000000000000000e314661543d85535a883e9664016939dcc735476"
          ],
          "data": "0x",
          "blockHash": "0x7cf43b9a520663cf1a8812c0a0b3c392afa1564f89d08fb2f8f97d764709a492",
          "blockNumber": "0x53701a5",
          "transactionHash": "0x5d20d51c978323c2f13f738d3c1e354c1a27cff0a529f74cea8594f5b462b354",
          "transactionIndex": "0x1",
          "logIndex": "0x0",
          "removed": false
        },
        {
          "address": "0x0ff91587A9628BeB7Ad9B119f5042BabC38304D8",
          "topics": [
            "0xea8787f128d10b2cc0317b0c3960f9ad447f7f6c1ed189db1083ccffd20f456e",
            "0x000000000000000000000000000000000000000000000000000000000000001a"
          ],
          "data": "0x",
          "blockHash": "0x7cf43b9a520663cf1a8812c0a0b3c392afa1564f89d08fb2f8f97d764709a492",
          "blockNumber": "0x53701a5",
          "transactionHash": "0x5d20d51c978323c2f13f738d3c1e354c1a27cff0a529f74cea8594f5b462b354",
          "transactionIndex": "0x1",
          "logIndex": "0x1",
          "removed": false
        },
        {
          "address": "0x0ff91587A9628BeB7Ad9B119f5042BabC38304D8",
          "topics": [
            "0xbc7cd75a20ee27fd9adebab32041f755214dbc6bffa90cc0225b39da2e5c2d3b",
            "0x00000000000000000000000058c62441a5e07cdd55b014e67d4414d74d1aa500"
          ],
          "data": "0x",
          "blockHash": "0x7cf43b9a520663cf1a8812c0a0b3c392afa1564f89d08fb2f8f97d764709a492",
          "blockNumber": "0x53701a5",
          "transactionHash": "0x5d20d51c978323c2f13f738d3c1e354c1a27cff0a529f74cea8594f5b462b354",
          "transactionIndex": "0x1",
          "logIndex": "0x2",
          "removed": false
        },
        {
          "address": "0x0ff91587A9628BeB7Ad9B119f5042BabC38304D8",
          "topics": [
            "0xf7eed2a7fabbf1bec8d55ed5e785cc76622376dde5df4ff15470551e030b8134",
            "0x000000000000000000000000453162b347f3d7eec4a185c5271684cd574f8c71"
          ],
          "data": "0x",
          "blockHash": "0x7cf43b9a520663cf1a8812c0a0b3c392afa1564f89d08fb2f8f97d764709a492",
          "blockNumber": "0x53701a5",
          "transactionHash": "0x5d20d51c978323c2f13f738d3c1e354c1a27cff0a529f74cea8594f5b462b354",
          "transactionIndex": "0x1",
          "logIndex": "0x3",
          "removed": false
        },
        {
          "address": "0xABd786926E9053F27C9A61124f345fC426c59189",
          "topics": [
            "0x49f6851d1cd01a518db5bdea5cffbbe90276baa2595f74250b7472b96806302e",
            "0x000000000000000000000000b653734e1b2cfefa56871728263397f5b1f1f674"
          ],
          "data": "0x000000000000000000000000000000000000000000000000000000000000000000000000000000000000000000000000000000000000000000000000000000400000000000000000000000000000000000000000000000000000000000000044857d1ab70000000000000000000000000ff91587a9628beb7ad9b119f5042babc38304d800000000000000000000000004a438df2579a77fe7d17ec49ba04dea740d0e1300000000000000000000000000000000000000000000000000000000",
          "blockHash": "0x7cf43b9a520663cf1a8812c0a0b3c392afa1564f89d08fb2f8f97d764709a492",
          "blockNumber": "0x53701a5",
          "transactionHash": "0x5d20d51c978323c2f13f738d3c1e354c1a27cff0a529f74cea8594f5b462b354",
          "transactionIndex": "0x1",
          "logIndex": "0x4",
          "removed": false
        }
      ],
      "logsBloom": "0x04000000000000000000000802000000400000000800000400008000000000000000000000000400000000000000000000008200200000000000820000000000000000000000000000000000000002001104000000000000000002001000002000008000000020000000000000000000000000000000000000000000000000000000004000000000000000000000000000000000000000000000000000000200020000000000000000000000000000000040000080000000004000000000000000000020000000000000000000010000004000000000000000000000100000000000000000000000000000000400100000000000000004400000000000000000",
      "type": "0x2",
      "transactionHash": "0x5d20d51c978323c2f13f738d3c1e354c1a27cff0a529f74cea8594f5b462b354",
      "transactionIndex": "0x1",
      "blockHash": "0x7cf43b9a520663cf1a8812c0a0b3c392afa1564f89d08fb2f8f97d764709a492",
      "blockNumber": "0x53701a5",
      "gasUsed": "0x2fcf0",
      "effectiveGasPrice": "0x5f5e100",
      "from": "0xfb5a5bDa14888c16134681a86f2B91277ADC3c91",
      "to": "0xABd786926E9053F27C9A61124f345fC426c59189",
      "contractAddress": null,
      "gasUsedForL1": "0x7258",
      "l1BlockNumber": "0x688958"
    }
  ],
  "libraries": [],
  "pending": [],
  "returns": {},
  "timestamp": 1728572275,
  "chain": 421614,
  "commit": "478e188"
}