{
  "transactions": [
    {
      "hash": null,
      "transactionType": "CALL",
      "contractName": null,
      "contractAddress": "0x5c47018e4bd1e2f91f22243263b3c6b00a9a4709",
      "function": "execute(address,bytes)",
      "arguments": [
        "0xF04c527F4687edcCE24aBffe4635aae27c03A56D",
        "0x857d1ab70000000000000000000000006b171aea44f1de9d213ebab4e221600e2e371add0000000000000000000000002963c94a51031154cff859083d02ef7d2c8a5a5b"
      ],
      "transaction": {
        "from": "0xc4ab76d253498bfb346d80dd57d21c2ca8874946",
        "to": "0x5c47018e4bd1e2f91f22243263b3c6b00a9a4709",
        "gas": "0x3843e",
        "value": "0x0",
        "input": "0x1cff79cd000000000000000000000000f04c527f4687edcce24abffe4635aae27c03a56d00000000000000000000000000000000000000000000000000000000000000400000000000000000000000000000000000000000000000000000000000000044857d1ab70000000000000000000000006b171aea44f1de9d213ebab4e221600e2e371add0000000000000000000000002963c94a51031154cff859083d02ef7d2c8a5a5b00000000000000000000000000000000000000000000000000000000",
        "nonce": "0x8",
        "chainId": "0x66eee"
      },
      "additionalContracts": [],
      "isFixedGasLimit": false
    }
  ],
  "receipts": [],
  "libraries": [],
  "pending": [],
  "returns": {},
  "timestamp": 1728501908,
  "chain": 421614,
  "commit": "7113675"
}