{
  "transactions": [
    {
      "hash": "0x29c201a68596cff5e13d05324da2934bfc4b26f14c3e9d9f1ace1e28bde9bef0",
      "transactionType": "CALL",
      "contractName": null,
      "contractAddress": "0xABd786926E9053F27C9A61124f345fC426c59189",
      "function": "executeCall(address,bytes)",
      "arguments": [
        "0xfa5fbA1AAE3829f27Be3325688CE2dad58C5052C",
        "0x549e84260000000000000000000000000b89264d03ae79b228b9c7145a6edd4ba9af7aa700000000000000000000000000000000000000000000000000000000000000000000000000000000000000000000000000000000000000000000000000000000000000000000000000000000fb5a5bda14888c16134681a86f2b91277adc3c91000000000000000000000000fb5a5bda14888c16134681a86f2b91277adc3c91000000000000000000000000000000000000000000000000000000000098968000000000000000000000000000000000000000000000000000000002540be400000000000000000000000000000000000000000000000000016345785d8a0000000000000000000000000000000000000000000000000000000000000000012000000000000000000000000000000000000000000000000000000000000000c4bca8c7b5000000000000000000000000000000000000000000000000000000000000007000000000000000000000000000000000000000000000000000000000000000400000000000000000000000000000000000000000000000000000000000000044e388b381000000000000000000000000000000000000000000000000000000000000002000000000000000000000000000000000000000000000000000000000670944530000000000000000000000000000000000000000000000000000000000000000000000000000000000000000000000000000000000000000"
      ],
      "transaction": {
        "from": "0xfb5a5bDa14888c16134681a86f2B91277ADC3c91",
        "to": "0xABd786926E9053F27C9A61124f345fC426c59189",
        "gas": "0x4345e",
        "value": "0x0",
        "input": "0xbca8c7b5000000000000000000000000fa5fba1aae3829f27be3325688ce2dad58c5052c00000000000000000000000000000000000000000000000000000000000000400000000000000000000000000000000000000000000000000000000000000224549e84260000000000000000000000000b89264d03ae79b228b9c7145a6edd4ba9af7aa700000000000000000000000000000000000000000000000000000000000000000000000000000000000000000000000000000000000000000000000000000000000000000000000000000000fb5a5bda14888c16134681a86f2b91277adc3c91000000000000000000000000fb5a5bda14888c16134681a86f2b91277adc3c91000000000000000000000000000000000000000000000000000000000098968000000000000000000000000000000000000000000000000000000002540be400000000000000000000000000000000000000000000000000016345785d8a0000000000000000000000000000000000000000000000000000000000000000012000000000000000000000000000000000000000000000000000000000000000c4bca8c7b5000000000000000000000000000000000000000000000000000000000000007000000000000000000000000000000000000000000000000000000000000000400000000000000000000000000000000000000000000000000000000000000044e388b38100000000000000000000000000000000000000000000000000000000000000200000000000000000000000000000000000000000000000000000000067094453000000000000000000000000000000000000000000000000000000000000000000000000000000000000000000000000000000000000000000000000000000000000000000000000000000000000000000000000",
        "nonce": "0x17",
        "chainId": "0x66eee"
      },
      "additionalContracts": [],
      "isFixedGasLimit": false
    }
  ],
  "receipts": [
    {
      "status": "0x1",
      "cumulativeGasUsed": "0x2fc84",
      "logs": [
        {
          "address": "0x6611EC4dfe40a9c0e7d48eFd4f62FB0fc04c4d34",
          "topics": [
            "0x5e3c1311ea442664e8b1611bfabef659120ea7a0a2cfc0667700bebc69cbffe1",
            "0x0000000000000000000000000000000000000000000000000000000000000b89",
            "0x8d7aa5d5b4aee5d9194781d33bbe13101a8f2fe1dfddf269004be0935c850b58"
          ],
          "data": "0x000000000000000000000000fa5fba1aae3829f27be3325688ce2dad58c5052c0000000000000000000000000000000000000000000000000000000000000009000000000000000000000000bce886926e9053f27c9a61124f345fc426c5a29a5641acfd5671a2fc26e8f54e33f6f038fde2e75502120688fb22e9dac004253a00000000000000000000000000000000000000000000000000000000000000000000000000000000000000000000000000000000000000000000000067093669",
          "blockHash": "0xeb5bfb58b713ba70178cbe9e37c25fed93b613657f9e5db8cd6581011c329846",
          "blockNumber": "0x53b7bbc",
          "transactionHash": "0x29c201a68596cff5e13d05324da2934bfc4b26f14c3e9d9f1ace1e28bde9bef0",
          "transactionIndex": "0x1",
          "logIndex": "0x0",
          "removed": false
        },
        {
          "address": "0x1aa17ADea40230C8341406fEAF8B0c859fc1D6eA",
          "topics": [
            "0xddf252ad1be2c89b69c2b068fc378daa952ba7f163c4a11628f55a4df523b3ef",
            "0x000000000000000000000000fa5fba1aae3829f27be3325688ce2dad58c5052c",
            "0x0000000000000000000000006611ec4dfe40a9c0e7d48efd4f62fb0fc04c4d34"
          ],
          "data": "0x000000000000000000000000000000000000000000000000016345785d8a0000",
          "blockHash": "0xeb5bfb58b713ba70178cbe9e37c25fed93b613657f9e5db8cd6581011c329846",
          "blockNumber": "0x53b7bbc",
          "transactionHash": "0x29c201a68596cff5e13d05324da2934bfc4b26f14c3e9d9f1ace1e28bde9bef0",
          "transactionIndex": "0x1",
          "logIndex": "0x1",
          "removed": false
        },
        {
          "address": "0xfa5fbA1AAE3829f27Be3325688CE2dad58C5052C",
          "topics": [
            "0xff64905f73a67fb594e0f940a8075a860db489ad991e032f48c81123eb52d60b",
            "0x0000000000000000000000000000000000000000000000000000000000000b89"
          ],
          "data": "0x000000000000000000000000000000000000000000000000000000000000002000000000000000000000000000000000000000000000000000000000000001e40000000000000000000000000b89264d03ae79b228b9c7145a6edd4ba9af7aa70000000000000000000000000000000000000000000000000000000000000000000000000000000000000000000000000000000000000000016345785d8a00000000000000000000000000000000000000000000000000000000000000000000000000000000000000000000fb5a5bda14888c16134681a86f2b91277adc3c91000000000000000000000000fb5a5bda14888c16134681a86f2b91277adc3c91000000000000000000000000000000000000000000000000000000000098968000000000000000000000000000000000000000000000000000000002540be40000000000000000000000000000000000000000000000000000000000000000c4bca8c7b5000000000000000000000000000000000000000000000000000000000000007000000000000000000000000000000000000000000000000000000000000000400000000000000000000000000000000000000000000000000000000000000044e388b381000000000000000000000000000000000000000000000000000000000000002000000000000000000000000000000000000000000000000000000000670944530000000000000000000000000000000000000000000000000000000000000000000000000000000000000000000000000000000000000000",
          "blockHash": "0xeb5bfb58b713ba70178cbe9e37c25fed93b613657f9e5db8cd6581011c329846",
          "blockNumber": "0x53b7bbc",
          "transactionHash": "0x29c201a68596cff5e13d05324da2934bfc4b26f14c3e9d9f1ace1e28bde9bef0",
          "transactionIndex": "0x1",
          "logIndex": "0x2",
          "removed": false
        },
        {
          "address": "0xABd786926E9053F27C9A61124f345fC426c59189",
          "topics": [
            "0x4d7dbdcc249630ec373f584267f10abf44938de920c32562f5aee93959c25258",
            "0x000000000000000000000000fa5fba1aae3829f27be3325688ce2dad58c5052c"
          ],
          "data": "0x000000000000000000000000000000000000000000000000000000000000000000000000000000000000000000000000000000000000000000000000000000400000000000000000000000000000000000000000000000000000000000000224549e84260000000000000000000000000b89264d03ae79b228b9c7145a6edd4ba9af7aa700000000000000000000000000000000000000000000000000000000000000000000000000000000000000000000000000000000000000000000000000000000000000000000000000000000fb5a5bda14888c16134681a86f2b91277adc3c91000000000000000000000000fb5a5bda14888c16134681a86f2b91277adc3c91000000000000000000000000000000000000000000000000000000000098968000000000000000000000000000000000000000000000000000000002540be400000000000000000000000000000000000000000000000000016345785d8a0000000000000000000000000000000000000000000000000000000000000000012000000000000000000000000000000000000000000000000000000000000000c4bca8c7b5000000000000000000000000000000000000000000000000000000000000007000000000000000000000000000000000000000000000000000000000000000400000000000000000000000000000000000000000000000000000000000000044e388b38100000000000000000000000000000000000000000000000000000000000000200000000000000000000000000000000000000000000000000000000067094453000000000000000000000000000000000000000000000000000000000000000000000000000000000000000000000000000000000000000000000000000000000000000000000000000000000000000000000000",
          "blockHash": "0xeb5bfb58b713ba70178cbe9e37c25fed93b613657f9e5db8cd6581011c329846",
          "blockNumber": "0x53b7bbc",
          "transactionHash": "0x29c201a68596cff5e13d05324da2934bfc4b26f14c3e9d9f1ace1e28bde9bef0",
          "transactionIndex": "0x1",
          "logIndex": "0x3",
          "removed": false
        }
      ],
      "logsBloom": "0x4000000000002000000000080000000000000000080000040000000040000000000000000000210000000000008000000000000002000000000000000200100400000000000000000000000800000000000020000000000000200000000000002004000000000800000000040000000000000000000000100000001000000000000000000000000000000000000000000000000000000000000000000000010002000002000800000004000008000000004000000000000000000000000000000000000a000000000000000000000000000000000008000000001000000000000000000000000000000000000000000001000000000000000000000040004000",
      "type": "0x2",
      "transactionHash": "0x29c201a68596cff5e13d05324da2934bfc4b26f14c3e9d9f1ace1e28bde9bef0",
      "transactionIndex": "0x1",
      "blockHash": "0xeb5bfb58b713ba70178cbe9e37c25fed93b613657f9e5db8cd6581011c329846",
      "blockNumber": "0x53b7bbc",
      "gasUsed": "0x2fc84",
      "effectiveGasPrice": "0x5f5e100",
      "from": "0xfb5a5bDa14888c16134681a86f2B91277ADC3c91",
      "to": "0xABd786926E9053F27C9A61124f345fC426c59189",
      "contractAddress": null,
      "gasUsedForL1": "0xa91e",
      "l1BlockNumber": "0x68a049"
    }
  ],
  "libraries": [],
  "pending": [],
  "returns": {},
  "timestamp": 1728657001,
  "chain": 421614,
  "commit": "f1c4c4e"
}