{
  "transactions": [
    {
      "hash": "0x1efdea8f548879229e51795b310c4677a1eee9d99b1be3e5343bb05e9ac7489e",
      "transactionType": "CALL",
      "contractName": null,
      "contractAddress": "0xABd786926E9053F27C9A61124f345fC426c59189",
      "function": "executeCall(address,bytes)",
      "arguments": [
        "0x1aa17ADea40230C8341406fEAF8B0c859fc1D6eA",
        "0x095ea7b3000000000000000000000000fa5fba1aae3829f27be3325688ce2dad58c5052c0000000000000000000000000000000000000000000000000000000218711a00"
      ],
      "transaction": {
        "from": "0xfb5a5bDa14888c16134681a86f2B91277ADC3c91",
        "to": "0xABd786926E9053F27C9A61124f345fC426c59189",
        "gas": "0x1a71d",
        "value": "0x0",
        "input": "0xbca8c7b50000000000000000000000001aa17adea40230c8341406feaf8b0c859fc1d6ea00000000000000000000000000000000000000000000000000000000000000400000000000000000000000000000000000000000000000000000000000000044095ea7b3000000000000000000000000fa5fba1aae3829f27be3325688ce2dad58c5052c0000000000000000000000000000000000000000000000000000000218711a0000000000000000000000000000000000000000000000000000000000",
        "nonce": "0x11",
        "chainId": "0x66eee"
      },
      "additionalContracts": [],
      "isFixedGasLimit": false
    }
  ],
  "receipts": [
    {
      "status": "0x1",
      "cumulativeGasUsed": "0x11e1b",
      "logs": [
        {
          "address": "0x1aa17ADea40230C8341406fEAF8B0c859fc1D6eA",
          "topics": [
            "0x8c5be1e5ebec7d5bd14f71427d1e84f3dd0314c0f7b2291e5b200ac8c7c3b925",
            "0x000000000000000000000000abd786926e9053f27c9a61124f345fc426c59189",
            "0x000000000000000000000000fa5fba1aae3829f27be3325688ce2dad58c5052c"
          ],
          "data": "0x0000000000000000000000000000000000000000000000000000000218711a00",
          "blockHash": "0x8bf81f1bae779c2e2c5a78dfab843c0d4bd462291574da4b6937a0926cc306c0",
          "blockNumber": "0x53b47cf",
          "transactionHash": "0x1efdea8f548879229e51795b310c4677a1eee9d99b1be3e5343bb05e9ac7489e",
          "transactionIndex": "0x1",
          "logIndex": "0x0",
          "removed": false
        },
        {
          "address": "0xABd786926E9053F27C9A61124f345fC426c59189",
          "topics": [
            "0x4d7dbdcc249630ec373f584267f10abf44938de920c32562f5aee93959c25258",
            "0x0000000000000000000000001aa17adea40230c8341406feaf8b0c859fc1d6ea"
          ],
          "data": "0x000000000000000000000000000000000000000000000000000000000000000000000000000000000000000000000000000000000000000000000000000000400000000000000000000000000000000000000000000000000000000000000044095ea7b3000000000000000000000000fa5fba1aae3829f27be3325688ce2dad58c5052c0000000000000000000000000000000000000000000000000000000218711a0000000000000000000000000000000000000000000000000000000000",
          "blockHash": "0x8bf81f1bae779c2e2c5a78dfab843c0d4bd462291574da4b6937a0926cc306c0",
          "blockNumber": "0x53b47cf",
          "transactionHash": "0x1efdea8f548879229e51795b310c4677a1eee9d99b1be3e5343bb05e9ac7489e",
          "transactionIndex": "0x1",
          "logIndex": "0x1",
          "removed": false
        }
      ],
      "logsBloom": "0x40000000000000000000000800000000000000000800000400000000040000000000000000002000000000000000000000000002000000000000000002201004002000004000000000000000000000000000000000000000000000000000000000040000000000000000000000000000000000000000000000000000000000000010000000000000000000000000000000040000000000000000000000000100020000000000000000000000000000000000000000000000000000000000000000000000000000000000000000000000000000000000000000000000000000000010000000000000000000000000000000000000000000000000000040000000",
      "type": "0x2",
      "transactionHash": "0x1efdea8f548879229e51795b310c4677a1eee9d99b1be3e5343bb05e9ac7489e",
      "transactionIndex": "0x1",
      "blockHash": "0x8bf81f1bae779c2e2c5a78dfab843c0d4bd462291574da4b6937a0926cc306c0",
      "blockNumber": "0x53b47cf",
      "gasUsed": "0x11e1b",
      "effectiveGasPrice": "0x5f5e100",
      "from": "0xfb5a5bDa14888c16134681a86f2B91277ADC3c91",
      "to": "0xABd786926E9053F27C9A61124f345fC426c59189",
      "contractAddress": null,
      "gasUsedForL1": "0x51c2",
      "l1BlockNumber": "0x689f34"
    }
  ],
  "libraries": [],
  "pending": [],
  "returns": {},
  "timestamp": 1728653027,
  "chain": 421614,
  "commit": "f1c4c4e"
}